S02800004B6576696E20576F6C66662044657420496E74656C6C6967656E7465204875732E7372656350
S113000071C000008EC000008CC000008AC00000D7
S113001088C0000086C0000084C0000082C00000C8
S113002080C000007EC000007CC000007AC00000D8
S113003078C0000076C0000074C0000072C00000E8
S113004070C000006EC000006CC000006AC00000F8
S113005068C0000066C0000064C0000062C0000008
S113006060C000005EC000005CC000005AC0000018
S113007058C0000056C0000054C0000052C0000028
S113008050C000004EC000004CC000004AC0000038
S113009048C0000046C0000044C0000042C0000048
S11300A040C000003EC000003CC000003AC0000058
S11300B038C0000036C0000034C0000032C0000068
S11300C030C000002EC000002CC000002AC0000078
S11300D028C0000026C0000024C0000022C0000088
S11300E020C0000011241FBECFEFD1E2DEBFCDBF80
S11300F000E00CBF12E0A0E0B2E0EEEAF6E000E0BF
S11301000BBF02C007900D92A234B107D9F722E0C9
S1130110A2E4B2E001C01D92A834B207E1F7ADD267
S1130120C4C26ECFB9D221E030E0892B11F020E0B7
S113013030E0C9010895FC01DC010D900020E9F7CD
S11301409D012550310981E090E02E173F0711F001
S113015080E090E008951F93CF93DF931F921F9246
S1130160CDB7DEB7182F82E492E0E5DF892B51F496
S1130170198380E092E08A83BE016F5F7F4F82E43F
S113018092E07FD20F900F90DF91CF911F9108954D
S1130190CF93DF9300D01F921F92CDB7DEB785E0D7
S11301A0E2E0F2E0DE01119601900D928A95E1F70A
S11301B04DD24ED22FEF87EA91E6215080409040F5
S11301C0E1F700C00000BE016F5F7F4F82E492E060
S11301D0A9DF019759F44DD22FEF87EA91E6215018
S11301E080409040E1F700C000002BC061E070E067
S11301F080E090E082D12AD22FD22FEF87EA91E6D5
S1130200215080409040E1F700C000001FD260E020
S113021070E080E090E071D123D261E070E080E092
S113022090E06BD182E492E0DBD198D094DF2FEFA1
S113023087E893E1215080409040E1F700C000003E
S1130240E5CF0F900F900F900F900F90DF91CF910B
S11302500895E7E0F1E080818E7F80838081806F64
S11302608083E8E0F1E080818FEF808308958098B7
S113027008958FE06ED149C10895EBDFFADFF7CF1F
S11302800895009721F42FEE2093080108958130FA
S1130290910521F42FED20930801089582309105F2
S11302A021F42FEB2093080108958330910519F46C
S11302B02FE72093080108952091060120FD0FC027
S11302C083EC99E00197F1F700C00000209106014A
S11302D0822F817090E09195819591090895809184
S11302E0060181FD0DC083EC99E00197F1F700C090
S11302F000008091060181FF25C08FEF9FEF0895D4
S11303008091060182FD0DC083EC99E00197F1F71D
S113031000C000008091060182FF17C08FEF9FEF9D
S113032008958091060183FD13C083EC99E0019741
S1130330F1F700C000008091060183FF0CC08FEF2D
S11303409FEF089581E090E0089582E090E00895A1
S11303508FEF9FEF089583E090E00895CF93DF93AC
S1130360C0E0D0E0CE018DDFA7DF8F3F2FEF9207F3
S113037039F42196C430D105ACF3C0E0D0E0F2CF1B
S1130380CC0FDD1FCC0FDD1FC95FDD4FC80FD91F98
S11303908881DF91CF910895E2E0F1E0808180626D
S11303A08083000080818F7D80830895CF93C82F40
S11303B0662331F0E2E0F1E080818061808305C052
S11303C0E2E0F1E080818F7E8083E2E0F1E08081F1
S11303D0877F8083A1E0B1E08C9180648C93249A20
S11303E0259A269A2E982D982C9880818F7B80832D
S11303F0CC230CF42E9AC6FD2D9AC5FD2C9AC4FF6D
S113040005C0E2E0F1E0808180648083C5DF2E983E
S11304102D982C98E2E0F1E080818F7B8083C3FDEE
S11304202E9AC2FD2D9AC1FD2C9AC0FF05C0E2E0B0
S1130430F1E0808180648083AFDFE2E0F1E08081DD
S1130440806480832C9A2D9A2E9ACF9108958823C4
S113045031F0E2E0F1E080818061808305C0E2E078
S1130460F1E080818F7E8083E2E0F1E0808188602A
S11304708083A1E0B1E08C918F7B8C9324982598A4
S1130480269880818062808300008091000186FF2D
S113049002C080E101C080E01C9980621D998064E3
S11304A01E998068E2E0F1E090819F7D90830000D6
S11304B090819062908300009091000196FD81608C
S11304C01C9982601D9984601E998860E2E0F1E0C5
S11304D090819F7D9083089580E0B9DF8823E4F3C1
S11304E000C000C080E0B3CF0895CF93C82FF4DFDD
S11304F060E08C2F5BDFCF910895611103C08058B9
S1130500F4CF08958054F1CF089581E0EECF08959B
S1130510CF93C82FE1DFCA3041F4803410F080E07B
S113052001C080E48058E1DF03C061E08C2F3EDF2E
S1130530CF910895CF93DF93EC012196FC01808144
S1130540882321F0E5DF89918111FCCFDF91CF91E0
S113055008951F93CF93DF93182FE1E0F1E080819A
S113056080618083808188608083808180628083D1
S1130570808180648083249A259A269A8FE99FE05B
S11305800197F1F700C000002C9AC2E0D1E0888105
S11305908064888301DF81EE94E00197F1F700C065
S11305A00000FADE95E19A95F1F70000F5DE85E1A9
S11305B08A95F1F7000088818F7B8883EDDE95E1D1
S11305C09A95F1F7000088E290DF88E08EDF9DDFE6
S11305D086E08BDF812F89DFDF91CF911F91089512
S11305E0CF92DF92EF92FF920F931F93CF93DF93FB
S11305F000D000D0CDB7DEB77C0100E010E087E189
S113060092E06C01DD2406C0B601CE01019639D01A
S11306100F5F1F4FF70101900020E9F73197EE19A2
S1130620FF090E171F0780F3CE01019683DF26967C
S11306300FB6F894DEBF0FBECDBFDF91CF911F91EF
S11306400F91FF90EF90DF90CF9008955ECF0895C3
S113065089E192E06FCF089587E292E06BCF08952D
S11306608EE292E067DF61E070E080E090E045CFE9
S1130670089588E392E05ECF0895FFDDFADD88DD1A
S1130680FDCFFB01DC010D900020E9F711970190EB
S11306900D920020E1F70895FB01DC018D9101909A
S11106A080190110D9F3990B0895F894FFCF37
S11306AE000031323334003134372A3235383033A6
S11306BE363923414243442A00436865636B696EAD
S11306CE67204C6F636B004C6F636B656400496EFF
S11306DE7075742070696E00556E6C6F636B656413
S10506EE000006
S9030000FC
