S02800004B6576696E20576F6C66662044657420496E74656C6C6967656E7465204875732E7372656350
S113000071C000008EC000008CC000008AC00000D7
S113001088C0000086C0000084C0000082C00000C8
S113002080C000007EC000007CC000007AC00000D8
S113003078C0000076C0000074C0000072C00000E8
S113004070C000006EC000006CC000006AC00000F8
S113005068C0000066C0000064C0000062C0000008
S113006060C000005EC000005CC000005AC0000018
S113007058C0000056C0000054C0000052C0000028
S113008050C000004EC000004CC000004AC0000038
S113009048C0000046C0000044C0000042C0000048
S11300A040C000003EC000003CC000003AC0000058
S11300B038C0000036C0000034C0000032C0000068
S11300C030C000002EC000002CC000002AC0000078
S11300D028C0000026C0000024C0000022C0000088
S11300E020C0000011241FBECFEFD1E2DEBFCDBF80
S11300F000E00CBF12E0A0E0B2E0E6E6F9E000E0C8
S11301000BBF02C007900D92AC3BB107D9F722E0B8
S1130110ACEBB2E001C01D92A23CB207E1F7A1D35F
S113012020C46ECF15D421E030E0892B11F020E0FB
S113013030E0C9010895909100029A32A9F090919B
S113014001029A3259F0909102029A3251F0909140
S113015003029A3271F4E3E0F0E008C0E1E0F0E079
S113016005C0E2E0F0E002C0E0E0F0E0E050FE4F65
S11301708083089581E090E0209103022A3211F4F3
S113018080E090E00895E0E0F2E08AE280838183F9
S1130190828383830895C8D38091BE029091BF0265
S11301A001969093BF028093BE0203D3ECCF0895CF
S11301B00F931F93CF93DF9300D01F921F92CDB75D
S11301C0DEB785E0E9E0F2E0DE01119601900D92E0
S11301D08A95E1F7B5D20FEF1FEF26C0A8D380911F
S11301E0BE029091BF02039799F41093BD0200934D
S11301F0BC021AC080E092E040D2FDD09CDF2FEF19
S113020083EC99E0215080409040E1F700C0000069
S1130210B1DF892B79F3BE016F5F7F4F80E092E0FD
S113022081DF892B09F4B7DFBE016F5F7F4F80E068
S113023092E078DF892B91F21092BF021092BE02F5
S113024081E090E09093BD028093BC0296D272D379
S1130250E2D20F900F900F900F900F90DF91CF91FB
S11302601F910F91089566D34EC30895C7D25CD3EE
S1130270FFCF8091BC029091BD02009711F498CFFA
S11302800895019711F4EFCF0895F0DF1092BD02A5
S11302901092BC0278CF08958091BC029091BD0267
S11302A0009729F08130910511F08FEF9FEF0895A9
S11302B0E7E0F1E080818E7F80838081806F80839E
S11302C0E8E0F1E080818FEF8083089580980895BD
S11302D0099A08956B9A0895E0E9F0E08081886AAC
S11302E08083808182608083E1E9F0E080818061A5
S11302F0808380818260808380E29EE49093970073
S11303008093960008958FE071D14CC10895D0DF99
S1130310FADFDCDFE1DFDEDFDBCF0895009721F4D5
S11303202FEE2093080108958130910521F42FEDDB
S11303302093080108958230910521F42FEB209336
S1130340080108958330910519F42FE720930801DB
S113035008952091060120FD0FC083EC99E00197D8
S1130360F1F700C0000020910601822F817090E017
S113037091958195910908958091060181FD0DC0A3
S113038083EC99E00197F1F700C000008091060129
S113039081FF25C08FEF9FEF08958091060182FDB4
S11303A00DC083EC99E00197F1F700C00000809143
S11303B0060182FF17C08FEF9FEF08958091060119
S11303C083FD13C083EC99E00197F1F700C00000AE
S11303D08091060183FF0CC08FEF9FEF089581E0A9
S11303E090E0089582E090E008958FEF9FEF0895E4
S11303F083E090E00895CF93DF93C0E0D0E0CE0196
S11304008DDFA7DF8F3F2FEF920739F42196C43099
S1130410D105ACF3C0E0D0E0F2CFCC0FDD1FCC0FA0
S1130420DD1FC25FDD4FC80FD91F8881DF91CF91D7
S11304300895E2E0F1E080818062808300008081A1
S11304408F7D80830895CF93C82F662331F0E2E037
S1130450F1E080818061808305C0E2E0F1E0808189
S11304608F7E8083E2E0F1E08081877F8083A1E05A
S1130470B1E08C9180648C93249A259A269A2E98C4
S11304802D982C9880818F7B8083CC230CF42E9A1A
S1130490C6FD2D9AC5FD2C9AC4FF05C0E2E0F1E02B
S11304A0808180648083C5DF2E982D982C98E2E0AB
S11304B0F1E080818F7B8083C3FD2E9AC2FD2D9A4B
S11304C0C1FD2C9AC0FF05C0E2E0F1E080818064A8
S11304D08083AFDFE2E0F1E08081806480832C9A46
S11304E02D9A2E9ACF910895882331F0E2E0F1E01D
S11304F080818061808305C0E2E0F1E080818F7EAD
S11305008083E2E0F1E0808188608083A1E0B1E053
S11305108C918F7B8C932498259826988081806277
S1130520808300008091000186FF02C080E101C049
S113053080E01C9980621D9980641E998068E2E0C5
S1130540F1E090819F7D9083000090819062908380
S113055000009091000196FD81601C9982601D99B4
S113056084601E998860E2E0F1E090819F7D908331
S1130570089580E0B9DF8823E4F300C000C080E080
S1130580B3CF0895CF93C82FF4DF60E08C2F5BDFE7
S1130590CF910895611103C08058F4CF0895805419
S11305A0F1CF089581E0EECF0895CF93C82FE1DF16
S11305B0CA3041F4803410F080E001C080E48058F7
S11305C0E1DF03C061E08C2F3EDFCF910895CF932C
S11305D0DF93EC012196FC018081882321F0E5DF83
S11305E089918111FCCFDF91CF9108951F93CF930F
S11305F0DF93182FE1E0F1E08081806180838081C6
S1130600886080838081806280838081806480832D
S1130610249A259A269A8FE99FE00197F1F700C062
S113062000002C9AC2E0D1E088818064888301DFD5
S113063081EE94E00197F1F700C00000FADE95E145
S11306409A95F1F70000F5DE85E18A95F1F700004F
S113065088818F7B8883EDDE95E19A95F1F7000020
S113066088E290DF88E08EDF9DDF86E08BDF812FDC
S113067089DFDF91CF911F910895CF92DF92EF929E
S1130680FF920F931F93CF93DF93CDB7DEB72997D4
S11306900FB6F894DEBF0FBECDBF7C0183DF60E0F0
S11306A070E080E090E076DF8EE192E090DF61E040
S11306B070E080E090E06EDF1A821982FE013396CA
S11306C084E0DF011D928A95E9F7809106029091FA
S11306D00702A09108028F839887A987670100E029
S11306E010E00DC0F60181916F018A3231F0BE0134
S11306F0695F7F4FCE01019620D10F5F1F4FF70135
S113070001900020E9F73197EE19FF090E171F0732
S113071048F3CE0101965BDF29960FB6F894DEBF4D
S11307200FBECDBFDF91CF911F910F91FF90EF903E
S1130730DF90CF90089536DF88E292E048CF0895A5
S113074031DFF9DF2FEF8DE399E4215080409040B1
S1130750E1F700C0000061E070E080E090E01ADFA3
S113076086E392E034DF2FEF8DE399E4215080405B
S11307709040E1F700C000000895DDDF2FEF8DE326
S113078099E4215080409040E1F700C0000061E00E
S113079070E080E090E0FEDE8DE392E018DF2FEF62
S11307A08DE399E4215080409040E1F700C00000BF
S11307B00895CF93DF93EC01F5DE86E492E007DF42
S11307C061E070E080E090E0E5DEC130D10519F031
S11307D0229729F007C087E592E0F9DE03C081E69D
S11307E092E0F5DE2FEF8DE399E4215080409040B4
S11307F0E1F700C00000DF91CF910895D3DE8DE6CC
S113080092E0E5DE61E070E080E090E0C3DE8DE739
S113081092E0DDCE0895C6DE8BE892E0D8DE61E09A
S113082070E080E090E0B6DE86E992E0D0DE2FEF63
S11308308DE399E4215080409040E1F700C000002E
S11308400895B0DE8EE992E0C2DE87EA92E0BFDE70
S113085061E070E080E090E09DDE80EB92E0B7CE56
S1130860089555DD50DD05DDFDCF92B182E0892785
S113087082B908958091C0029091C102009791F4C9
S113088084EF91E0E8E9F0E091838083AFE9BFE091
S11308901197F1F700C0000001968832BAE09B0777
S11308A099F713C0019789F488E29AE0E8E9F0E047
S11308B091838083AFE9BFE01197F1F700C0000096
S11308C00197843FB1E09B0799F78091C002909112
S11308D0C1020196823091052CF49093C102809359
S11308E0C00208951092C1021092C0020895823489
S11308F031F0833431F0813429F4B7CF0895BACF7D
S11309000895C4CC08959DDF0BC075DDF0DF2FEF93
S113091083EC99E0215080409040E1F700C0000052
S1130920BBDC019791F3089581E081BB089584E0D5
S113093081BB089582E081BB0895FB01DC010D9029
S11309400020E9F7119701900D920020E1F7089536
S1130950FB01DC018D91019080190110D9F3990BF1
S10909600895F894FFCF96
S11309662A2A2A2A00002A0000313233340031347C
S1130976372A323538303336392341424344496EB7
S11309867075742070696E00436865636B696E6781
S1130996204C6F636B004C6F636B656400556E6C23
S11309A66F636B6564004572726F723A2057726F9B
S11309B66E672050696E0054727920616761696EB2
S11309C6004C617374206368616E636500546F6FD5
S11309D6204D616E79204572726F7273004C6F639D
S11309E66B6564206F7574203A440057656C636FB9
S11309F66D6520746F004D7920486F6D6500413A2E
S1130A064C696768742000423A4761726167650001
S10F0A16433A4C6F636B20446F6F720016
S9030000FC
